{
    "_format": "hh-sol-artifact-1",
    "contractName": "Uniswap",
    "sourceName": "contracts/Uniswap.sol",
    "abi": [
        {
            "inputs": [],
            "stateMutability": "nonpayable",
            "type": "constructor"
        },
        {
            "inputs": [
                {
                    "internalType": "string",
                    "name": "tokenName",
                    "type": "string"
                },
                {
                    "internalType": "address",
                    "name": "_address",
                    "type": "address"
                }
            ],
            "name": "getBalance",
            "outputs": [
                {
                    "internalType": "uint256",
                    "name": "",
                    "type": "uint256"
                }
            ],
            "stateMutability": "view",
            "type": "function"
        },
        {
            "inputs": [
                {
                    "internalType": "string",
                    "name": "tokenName",
                    "type": "string"
                }
            ],
            "name": "getName",
            "outputs": [
                {
                    "internalType": "string",
                    "name": "",
                    "type": "string"
                }
            ],
            "stateMutability": "view",
            "type": "function"
        },
        {
            "inputs": [
                {
                    "internalType": "string",
                    "name": "tokenName",
                    "type": "string"
                }
            ],
            "name": "getTokenAddress",
            "outputs": [
                {
                    "internalType": "address",
                    "name": "",
                    "type": "address"
                }
            ],
            "stateMutability": "view",
            "type": "function"
        },
        {
            "inputs": [
                {
                    "internalType": "string",
                    "name": "tokenName",
                    "type": "string"
                }
            ],
            "name": "swapEthToToken",
            "outputs": [
                {
                    "internalType": "uint256",
                    "name": "",
                    "type": "uint256"
                }
            ],
            "stateMutability": "payable",
            "type": "function"
        },
        {
            "inputs": [
                {
                    "internalType": "string",
                    "name": "tokenName",
                    "type": "string"
                },
                {
                    "internalType": "uint256",
                    "name": "_amount",
                    "type": "uint256"
                }
            ],
            "name": "swapTokenToEth",
            "outputs": [
                {
                    "internalType": "uint256",
                    "name": "",
                    "type": "uint256"
                }
            ],
            "stateMutability": "nonpayable",
            "type": "function"
        },
        {
            "inputs": [
                {
                    "internalType": "string",
                    "name": "srcTokenName",
                    "type": "string"
                },
                {
                    "internalType": "string",
                    "name": "destTokenName",
                    "type": "string"
                },
                {
                    "internalType": "uint256",
                    "name": "_amount",
                    "type": "uint256"
                }
            ],
            "name": "swapTokenToToken",
            "outputs": [],
            "stateMutability": "nonpayable",
            "type": "function"
        },
        {
            "inputs": [
                {
                    "internalType": "string",
                    "name": "",
                    "type": "string"
                }
            ],
            "name": "tokenInstanceMap",
            "outputs": [
                {
                    "internalType": "contract ERC20",
                    "name": "",
                    "type": "address"
                }
            ],
            "stateMutability": "view",
            "type": "function"
        },
        {
            "inputs": [
                {
                    "internalType": "uint256",
                    "name": "",
                    "type": "uint256"
                }
            ],
            "name": "tokens",
            "outputs": [
                {
                    "internalType": "string",
                    "name": "",
                    "type": "string"
                }
            ],
            "stateMutability": "view",
            "type": "function"
        }
    ],
    "bytecode": "0x608060405260405180606001604052806040518060400160405280600581526020017f436f696e4100000000000000000000000000000000000000000000000000000081525081526020016040518060400160405280600581526020017f436f696e4200000000000000000000000000000000000000000000000000000081525081526020016040518060400160405280600581526020017f436f696e430000000000000000000000000000000000000000000000000000008152508152506000906003620000d09291906200020d565b50655af3107a4000600255348015620000e857600080fd5b5060005b6000805490508110156200020657600080828154811062000112576200011162000308565b5b906000526020600020016000838154811062000133576200013262000308565b5b906000526020600020016040516200014b906200026d565b6200015892919062000451565b604051809103906000f08015801562000175573d6000803e3d6000fd5b5090508060016000848154811062000192576200019162000308565b5b90600052602060002001604051620001ab919062000526565b908152602001604051809103902060006101000a81548173ffffffffffffffffffffffffffffffffffffffff021916908373ffffffffffffffffffffffffffffffffffffffff160217905550508080600101915050620000ec565b5062000827565b8280548282559060005260206000209081019282156200025a579160200282015b828111156200025957825182908162000248919062000740565b50916020019190600101906200022e565b5b5090506200026991906200027b565b5090565b6118268062001a4683390190565b5b808211156200029f5760008181620002959190620002a3565b506001016200027c565b5090565b508054620002b19062000366565b6000825580601f10620002c55750620002e6565b601f016020900490600052602060002090810190620002e59190620002e9565b5b50565b5b8082111562000304576000816000905550600101620002ea565b5090565b7f4e487b7100000000000000000000000000000000000000000000000000000000600052603260045260246000fd5b7f4e487b7100000000000000000000000000000000000000000000000000000000600052602260045260246000fd5b600060028204905060018216806200037f57607f821691505b60208210810362000395576200039462000337565b5b50919050565b600082825260208201905092915050565b60008190508160005260206000209050919050565b60008154620003d08162000366565b620003dc81866200039b565b94506001821660008114620003fa5760018114620004115762000448565b60ff19831686528115156020028601935062000448565b6200041c85620003ac565b60005b8381101562000440578154818901526001820191506020810190506200041f565b808801955050505b50505092915050565b600060408201905081810360008301526200046d8185620003c1565b90508181036020830152620004838184620003c1565b90509392505050565b600081905092915050565b60008154620004a68162000366565b620004b281866200048c565b94506001821660008114620004d05760018114620004e6576200051d565b60ff19831686528115158202860193506200051d565b620004f185620003ac565b60005b838110156200051557815481890152600182019150602081019050620004f4565b838801955050505b50505092915050565b600062000534828462000497565b915081905092915050565b600081519050919050565b7f4e487b7100000000000000000000000000000000000000000000000000000000600052604160045260246000fd5b60006020601f8301049050919050565b600082821b905092915050565b600060088302620005c87fffffffffffffffffffffffffffffffffffffffffffffffffffffffffffffffff8262000589565b620005d4868362000589565b95508019841693508086168417925050509392505050565b6000819050919050565b6000819050919050565b6000620006216200061b6200061584620005ec565b620005f6565b620005ec565b9050919050565b6000819050919050565b6200063d8362000600565b620006556200064c8262000628565b84845462000596565b825550505050565b600090565b6200066c6200065d565b6200067981848462000632565b505050565b5b81811015620006a1576200069560008262000662565b6001810190506200067f565b5050565b601f821115620006f057620006ba81620003ac565b620006c58462000579565b81016020851015620006d5578190505b620006ed620006e48562000579565b8301826200067e565b50505b505050565b600082821c905092915050565b60006200071560001984600802620006f5565b1980831691505092915050565b600062000730838362000702565b9150826002028217905092915050565b6200074b826200053f565b67ffffffffffffffff8111156200076757620007666200054a565b5b62000773825462000366565b62000780828285620006a5565b600060209050601f831160018114620007b85760008415620007a3578287015190505b620007af858262000722565b8655506200081f565b601f198416620007c886620003ac565b60005b82811015620007f257848901518255600182019150602085019450602081019050620007cb565b868310156200081257848901516200080e601f89168262000702565b8355505b6001600288020188555050505b505050505050565b61120f80620008376000396000f3fe60806040526004361061007b5760003560e01c8063a93325ed1161004e578063a93325ed14610167578063bf015aae146101a4578063c4091236146101cd578063db6f63ee1461020a5761007b565b80634f64b2be1461008057806363fcf7c5146100bd5780636932cf81146100ed57806389f4b3171461012a575b600080fd5b34801561008c57600080fd5b506100a760048036038101906100a2919061095d565b610247565b6040516100b49190610a1a565b60405180910390f35b6100d760048036038101906100d29190610b71565b6102f3565b6040516100e49190610bc9565b60405180910390f35b3480156100f957600080fd5b50610114600480360381019061010f9190610b71565b6103ed565b6040516101219190610a1a565b60405180910390f35b34801561013657600080fd5b50610151600480360381019061014c9190610c42565b6104a8565b60405161015e9190610bc9565b60405180910390f35b34801561017357600080fd5b5061018e60048036038101906101899190610b71565b61056a565b60405161019b9190610cfd565b60405180910390f35b3480156101b057600080fd5b506101cb60048036038101906101c69190610d18565b6105b3565b005b3480156101d957600080fd5b506101f460048036038101906101ef9190610b71565b610744565b6040516102019190610db2565b60405180910390f35b34801561021657600080fd5b50610231600480360381019061022c9190610dcd565b61078c565b60405161023e9190610bc9565b60405180910390f35b6000818154811061025757600080fd5b90600052602060002001600091509050805461027290610e58565b80601f016020809104026020016040519081016040528092919081815260200182805461029e90610e58565b80156102eb5780601f106102c0576101008083540402835291602001916102eb565b820191906000526020600020905b8154815290600101906020018083116102ce57829003601f168201915b505050505081565b6000803490506000670de0b6b3a7640000600254836103129190610ee7565b61031c9190610f18565b905060018460405161032e9190610f96565b908152602001604051809103902060009054906101000a900473ffffffffffffffffffffffffffffffffffffffff1673ffffffffffffffffffffffffffffffffffffffff1663a9059cbb33836040518363ffffffff1660e01b8152600401610397929190610fad565b6020604051808303816000875af11580156103b6573d6000803e3d6000fd5b505050506040513d601f19601f820116820180604052508101906103da919061100e565b6103e357600080fd5b8092505050919050565b60606001826040516103ff9190610f96565b908152602001604051809103902060009054906101000a900473ffffffffffffffffffffffffffffffffffffffff1673ffffffffffffffffffffffffffffffffffffffff166306fdde036040518163ffffffff1660e01b8152600401600060405180830381865afa158015610478573d6000803e3d6000fd5b505050506040513d6000823e3d601f19601f820116820180604052508101906104a191906110ab565b9050919050565b60006001836040516104ba9190610f96565b908152602001604051809103902060009054906101000a900473ffffffffffffffffffffffffffffffffffffffff1673ffffffffffffffffffffffffffffffffffffffff166370a08231836040518263ffffffff1660e01b81526004016105219190610db2565b602060405180830381865afa15801561053e573d6000803e3d6000fd5b505050506040513d601f19601f820116820180604052508101906105629190611109565b905092915050565b6001818051602081018201805184825260208301602085012081835280955050505050506000915054906101000a900473ffffffffffffffffffffffffffffffffffffffff1681565b6001836040516105c39190610f96565b908152602001604051809103902060009054906101000a900473ffffffffffffffffffffffffffffffffffffffff1673ffffffffffffffffffffffffffffffffffffffff166323b872dd3330846040518463ffffffff1660e01b815260040161062e93929190611136565b6020604051808303816000875af115801561064d573d6000803e3d6000fd5b505050506040513d601f19601f82011682018060405250810190610671919061100e565b61067a57600080fd5b60018260405161068a9190610f96565b908152602001604051809103902060009054906101000a900473ffffffffffffffffffffffffffffffffffffffff1673ffffffffffffffffffffffffffffffffffffffff1663a9059cbb33836040518363ffffffff1660e01b81526004016106f3929190610fad565b6020604051808303816000875af1158015610712573d6000803e3d6000fd5b505050506040513d601f19601f82011682018060405250810190610736919061100e565b61073f57600080fd5b505050565b60006001826040516107569190610f96565b908152602001604051809103902060009054906101000a900473ffffffffffffffffffffffffffffffffffffffff169050919050565b600080670de0b6b3a7640000836107a39190610ee7565b90506000600254826107b59190610f18565b9050804710156107fa576040517f08c379a00000000000000000000000000000000000000000000000000000000081526004016107f1906111b9565b60405180910390fd5b3373ffffffffffffffffffffffffffffffffffffffff166108fc829081150290604051600060405180830381858888f19350505050158015610840573d6000803e3d6000fd5b506001856040516108519190610f96565b908152602001604051809103902060009054906101000a900473ffffffffffffffffffffffffffffffffffffffff1673ffffffffffffffffffffffffffffffffffffffff166323b872dd3330876040518463ffffffff1660e01b81526004016108bc93929190611136565b6020604051808303816000875af11580156108db573d6000803e3d6000fd5b505050506040513d601f19601f820116820180604052508101906108ff919061100e565b61090857600080fd5b809250505092915050565b6000604051905090565b600080fd5b600080fd5b6000819050919050565b61093a81610927565b811461094557600080fd5b50565b60008135905061095781610931565b92915050565b6000602082840312156109735761097261091d565b5b600061098184828501610948565b91505092915050565b600081519050919050565b600082825260208201905092915050565b60005b838110156109c45780820151818401526020810190506109a9565b60008484015250505050565b6000601f19601f8301169050919050565b60006109ec8261098a565b6109f68185610995565b9350610a068185602086016109a6565b610a0f816109d0565b840191505092915050565b60006020820190508181036000830152610a3481846109e1565b905092915050565b600080fd5b600080fd5b7f4e487b7100000000000000000000000000000000000000000000000000000000600052604160045260246000fd5b610a7e826109d0565b810181811067ffffffffffffffff82111715610a9d57610a9c610a46565b5b80604052505050565b6000610ab0610913565b9050610abc8282610a75565b919050565b600067ffffffffffffffff821115610adc57610adb610a46565b5b610ae5826109d0565b9050602081019050919050565b82818337600083830152505050565b6000610b14610b0f84610ac1565b610aa6565b905082815260208101848484011115610b3057610b2f610a41565b5b610b3b848285610af2565b509392505050565b600082601f830112610b5857610b57610a3c565b5b8135610b68848260208601610b01565b91505092915050565b600060208284031215610b8757610b8661091d565b5b600082013567ffffffffffffffff811115610ba557610ba4610922565b5b610bb184828501610b43565b91505092915050565b610bc381610927565b82525050565b6000602082019050610bde6000830184610bba565b92915050565b600073ffffffffffffffffffffffffffffffffffffffff82169050919050565b6000610c0f82610be4565b9050919050565b610c1f81610c04565b8114610c2a57600080fd5b50565b600081359050610c3c81610c16565b92915050565b60008060408385031215610c5957610c5861091d565b5b600083013567ffffffffffffffff811115610c7757610c76610922565b5b610c8385828601610b43565b9250506020610c9485828601610c2d565b9150509250929050565b6000819050919050565b6000610cc3610cbe610cb984610be4565b610c9e565b610be4565b9050919050565b6000610cd582610ca8565b9050919050565b6000610ce782610cca565b9050919050565b610cf781610cdc565b82525050565b6000602082019050610d126000830184610cee565b92915050565b600080600060608486031215610d3157610d3061091d565b5b600084013567ffffffffffffffff811115610d4f57610d4e610922565b5b610d5b86828701610b43565b935050602084013567ffffffffffffffff811115610d7c57610d7b610922565b5b610d8886828701610b43565b9250506040610d9986828701610948565b9150509250925092565b610dac81610c04565b82525050565b6000602082019050610dc76000830184610da3565b92915050565b60008060408385031215610de457610de361091d565b5b600083013567ffffffffffffffff811115610e0257610e01610922565b5b610e0e85828601610b43565b9250506020610e1f85828601610948565b9150509250929050565b7f4e487b7100000000000000000000000000000000000000000000000000000000600052602260045260246000fd5b60006002820490506001821680610e7057607f821691505b602082108103610e8357610e82610e29565b5b50919050565b7f4e487b7100000000000000000000000000000000000000000000000000000000600052601260045260246000fd5b7f4e487b7100000000000000000000000000000000000000000000000000000000600052601160045260246000fd5b6000610ef282610927565b9150610efd83610927565b925082610f0d57610f0c610e89565b5b828204905092915050565b6000610f2382610927565b9150610f2e83610927565b9250828202610f3c81610927565b91508282048414831517610f5357610f52610eb8565b5b5092915050565b600081905092915050565b6000610f708261098a565b610f7a8185610f5a565b9350610f8a8185602086016109a6565b80840191505092915050565b6000610fa28284610f65565b915081905092915050565b6000604082019050610fc26000830185610da3565b610fcf6020830184610bba565b9392505050565b60008115159050919050565b610feb81610fd6565b8114610ff657600080fd5b50565b60008151905061100881610fe2565b92915050565b6000602082840312156110245761102361091d565b5b600061103284828501610ff9565b91505092915050565b600061104e61104984610ac1565b610aa6565b90508281526020810184848401111561106a57611069610a41565b5b6110758482856109a6565b509392505050565b600082601f83011261109257611091610a3c565b5b81516110a284826020860161103b565b91505092915050565b6000602082840312156110c1576110c061091d565b5b600082015167ffffffffffffffff8111156110df576110de610922565b5b6110eb8482850161107d565b91505092915050565b60008151905061110381610931565b92915050565b60006020828403121561111f5761111e61091d565b5b600061112d848285016110f4565b91505092915050565b600060608201905061114b6000830186610da3565b6111586020830185610da3565b6111656040830184610bba565b949350505050565b7f4465782069732072756e6e696e67206c6f77206f6e2062616c616e63652e0000600082015250565b60006111a3601e83610995565b91506111ae8261116d565b602082019050919050565b600060208201905081810360008301526111d281611196565b905091905056fea2646970667358221220bd1592a41a9f26e4a39735d583ec98a7d2dd2954bfe2aa761b15dbd6ccbfa9f964736f6c6343000818003360806040523480156200001157600080fd5b5060405162001826380380620018268339818101604052810190620000379190620004d3565b818181600390816200004a9190620007a3565b5080600490816200005c9190620007a3565b5050506200007b3369152d02c7e14af68000006200008360201b60201c565b5050620009c1565b600073ffffffffffffffffffffffffffffffffffffffff168273ffffffffffffffffffffffffffffffffffffffff1603620000f85760006040517fec442f05000000000000000000000000000000000000000000000000000000008152600401620000ef9190620008cf565b60405180910390fd5b6200010c600083836200011060201b60201c565b5050565b600073ffffffffffffffffffffffffffffffffffffffff168373ffffffffffffffffffffffffffffffffffffffff1603620001665780600260008282546200015991906200091b565b925050819055506200023c565b60008060008573ffffffffffffffffffffffffffffffffffffffff1673ffffffffffffffffffffffffffffffffffffffff16815260200190815260200160002054905081811015620001f5578381836040517fe450d38c000000000000000000000000000000000000000000000000000000008152600401620001ec9392919062000967565b60405180910390fd5b8181036000808673ffffffffffffffffffffffffffffffffffffffff1673ffffffffffffffffffffffffffffffffffffffff16815260200190815260200160002081905550505b600073ffffffffffffffffffffffffffffffffffffffff168273ffffffffffffffffffffffffffffffffffffffff1603620002875780600260008282540392505081905550620002d4565b806000808473ffffffffffffffffffffffffffffffffffffffff1673ffffffffffffffffffffffffffffffffffffffff168152602001908152602001600020600082825401925050819055505b8173ffffffffffffffffffffffffffffffffffffffff168373ffffffffffffffffffffffffffffffffffffffff167fddf252ad1be2c89b69c2b068fc378daa952ba7f163c4a11628f55a4df523b3ef83604051620003339190620009a4565b60405180910390a3505050565b6000604051905090565b600080fd5b600080fd5b600080fd5b600080fd5b6000601f19601f8301169050919050565b7f4e487b7100000000000000000000000000000000000000000000000000000000600052604160045260246000fd5b620003a9826200035e565b810181811067ffffffffffffffff82111715620003cb57620003ca6200036f565b5b80604052505050565b6000620003e062000340565b9050620003ee82826200039e565b919050565b600067ffffffffffffffff8211156200041157620004106200036f565b5b6200041c826200035e565b9050602081019050919050565b60005b83811015620004495780820151818401526020810190506200042c565b60008484015250505050565b60006200046c6200046684620003f3565b620003d4565b9050828152602081018484840111156200048b576200048a62000359565b5b6200049884828562000429565b509392505050565b600082601f830112620004b857620004b762000354565b5b8151620004ca84826020860162000455565b91505092915050565b60008060408385031215620004ed57620004ec6200034a565b5b600083015167ffffffffffffffff8111156200050e576200050d6200034f565b5b6200051c85828601620004a0565b925050602083015167ffffffffffffffff81111562000540576200053f6200034f565b5b6200054e85828601620004a0565b9150509250929050565b600081519050919050565b7f4e487b7100000000000000000000000000000000000000000000000000000000600052602260045260246000fd5b60006002820490506001821680620005ab57607f821691505b602082108103620005c157620005c062000563565b5b50919050565b60008190508160005260206000209050919050565b60006020601f8301049050919050565b600082821b905092915050565b6000600883026200062b7fffffffffffffffffffffffffffffffffffffffffffffffffffffffffffffffff82620005ec565b620006378683620005ec565b95508019841693508086168417925050509392505050565b6000819050919050565b6000819050919050565b6000620006846200067e62000678846200064f565b62000659565b6200064f565b9050919050565b6000819050919050565b620006a08362000663565b620006b8620006af826200068b565b848454620005f9565b825550505050565b600090565b620006cf620006c0565b620006dc81848462000695565b505050565b5b818110156200070457620006f8600082620006c5565b600181019050620006e2565b5050565b601f82111562000753576200071d81620005c7565b6200072884620005dc565b8101602085101562000738578190505b620007506200074785620005dc565b830182620006e1565b50505b505050565b600082821c905092915050565b6000620007786000198460080262000758565b1980831691505092915050565b600062000793838362000765565b9150826002028217905092915050565b620007ae8262000558565b67ffffffffffffffff811115620007ca57620007c96200036f565b5b620007d6825462000592565b620007e382828562000708565b600060209050601f8311600181146200081b576000841562000806578287015190505b62000812858262000785565b86555062000882565b601f1984166200082b86620005c7565b60005b8281101562000855578489015182556001820191506020850194506020810190506200082e565b8683101562000875578489015162000871601f89168262000765565b8355505b6001600288020188555050505b505050505050565b600073ffffffffffffffffffffffffffffffffffffffff82169050919050565b6000620008b7826200088a565b9050919050565b620008c981620008aa565b82525050565b6000602082019050620008e66000830184620008be565b92915050565b7f4e487b7100000000000000000000000000000000000000000000000000000000600052601160045260246000fd5b600062000928826200064f565b915062000935836200064f565b925082820190508082111562000950576200094f620008ec565b5b92915050565b62000961816200064f565b82525050565b60006060820190506200097e6000830186620008be565b6200098d602083018562000956565b6200099c604083018462000956565b949350505050565b6000602082019050620009bb600083018462000956565b92915050565b610e5580620009d16000396000f3fe608060405234801561001057600080fd5b50600436106100935760003560e01c8063313ce56711610066578063313ce5671461013457806370a082311461015257806395d89b4114610182578063a9059cbb146101a0578063dd62ed3e146101d057610093565b806306fdde0314610098578063095ea7b3146100b657806318160ddd146100e657806323b872dd14610104575b600080fd5b6100a0610200565b6040516100ad9190610aa9565b60405180910390f35b6100d060048036038101906100cb9190610b64565b610292565b6040516100dd9190610bbf565b60405180910390f35b6100ee6102b5565b6040516100fb9190610be9565b60405180910390f35b61011e60048036038101906101199190610c04565b6102bf565b60405161012b9190610bbf565b60405180910390f35b61013c6102ee565b6040516101499190610c73565b60405180910390f35b61016c60048036038101906101679190610c8e565b6102f7565b6040516101799190610be9565b60405180910390f35b61018a61033f565b6040516101979190610aa9565b60405180910390f35b6101ba60048036038101906101b59190610b64565b6103d1565b6040516101c79190610bbf565b60405180910390f35b6101ea60048036038101906101e59190610cbb565b6103f4565b6040516101f79190610be9565b60405180910390f35b60606003805461020f90610d2a565b80601f016020809104026020016040519081016040528092919081815260200182805461023b90610d2a565b80156102885780601f1061025d57610100808354040283529160200191610288565b820191906000526020600020905b81548152906001019060200180831161026b57829003601f168201915b5050505050905090565b60008061029d61047b565b90506102aa818585610483565b600191505092915050565b6000600254905090565b6000806102ca61047b565b90506102d7858285610495565b6102e2858585610529565b60019150509392505050565b60006012905090565b60008060008373ffffffffffffffffffffffffffffffffffffffff1673ffffffffffffffffffffffffffffffffffffffff168152602001908152602001600020549050919050565b60606004805461034e90610d2a565b80601f016020809104026020016040519081016040528092919081815260200182805461037a90610d2a565b80156103c75780601f1061039c576101008083540402835291602001916103c7565b820191906000526020600020905b8154815290600101906020018083116103aa57829003601f168201915b5050505050905090565b6000806103dc61047b565b90506103e9818585610529565b600191505092915050565b6000600160008473ffffffffffffffffffffffffffffffffffffffff1673ffffffffffffffffffffffffffffffffffffffff16815260200190815260200160002060008373ffffffffffffffffffffffffffffffffffffffff1673ffffffffffffffffffffffffffffffffffffffff16815260200190815260200160002054905092915050565b600033905090565b610490838383600161061d565b505050565b60006104a184846103f4565b90507fffffffffffffffffffffffffffffffffffffffffffffffffffffffffffffffff81146105235781811015610513578281836040517ffb8f41b200000000000000000000000000000000000000000000000000000000815260040161050a93929190610d6a565b60405180910390fd5b6105228484848403600061061d565b5b50505050565b600073ffffffffffffffffffffffffffffffffffffffff168373ffffffffffffffffffffffffffffffffffffffff160361059b5760006040517f96c6fd1e0000000000000000000000000000000000000000000000000000000081526004016105929190610da1565b60405180910390fd5b600073ffffffffffffffffffffffffffffffffffffffff168273ffffffffffffffffffffffffffffffffffffffff160361060d5760006040517fec442f050000000000000000000000000000000000000000000000000000000081526004016106049190610da1565b60405180910390fd5b6106188383836107f4565b505050565b600073ffffffffffffffffffffffffffffffffffffffff168473ffffffffffffffffffffffffffffffffffffffff160361068f5760006040517fe602df050000000000000000000000000000000000000000000000000000000081526004016106869190610da1565b60405180910390fd5b600073ffffffffffffffffffffffffffffffffffffffff168373ffffffffffffffffffffffffffffffffffffffff16036107015760006040517f94280d620000000000000000000000000000000000000000000000000000000081526004016106f89190610da1565b60405180910390fd5b81600160008673ffffffffffffffffffffffffffffffffffffffff1673ffffffffffffffffffffffffffffffffffffffff16815260200190815260200160002060008573ffffffffffffffffffffffffffffffffffffffff1673ffffffffffffffffffffffffffffffffffffffff1681526020019081526020016000208190555080156107ee578273ffffffffffffffffffffffffffffffffffffffff168473ffffffffffffffffffffffffffffffffffffffff167f8c5be1e5ebec7d5bd14f71427d1e84f3dd0314c0f7b2291e5b200ac8c7c3b925846040516107e59190610be9565b60405180910390a35b50505050565b600073ffffffffffffffffffffffffffffffffffffffff168373ffffffffffffffffffffffffffffffffffffffff160361084657806002600082825461083a9190610deb565b92505081905550610919565b60008060008573ffffffffffffffffffffffffffffffffffffffff1673ffffffffffffffffffffffffffffffffffffffff168152602001908152602001600020549050818110156108d2578381836040517fe450d38c0000000000000000000000000000000000000000000000000000000081526004016108c993929190610d6a565b60405180910390fd5b8181036000808673ffffffffffffffffffffffffffffffffffffffff1673ffffffffffffffffffffffffffffffffffffffff16815260200190815260200160002081905550505b600073ffffffffffffffffffffffffffffffffffffffff168273ffffffffffffffffffffffffffffffffffffffff160361096257806002600082825403925050819055506109af565b806000808473ffffffffffffffffffffffffffffffffffffffff1673ffffffffffffffffffffffffffffffffffffffff168152602001908152602001600020600082825401925050819055505b8173ffffffffffffffffffffffffffffffffffffffff168373ffffffffffffffffffffffffffffffffffffffff167fddf252ad1be2c89b69c2b068fc378daa952ba7f163c4a11628f55a4df523b3ef83604051610a0c9190610be9565b60405180910390a3505050565b600081519050919050565b600082825260208201905092915050565b60005b83811015610a53578082015181840152602081019050610a38565b60008484015250505050565b6000601f19601f8301169050919050565b6000610a7b82610a19565b610a858185610a24565b9350610a95818560208601610a35565b610a9e81610a5f565b840191505092915050565b60006020820190508181036000830152610ac38184610a70565b905092915050565b600080fd5b600073ffffffffffffffffffffffffffffffffffffffff82169050919050565b6000610afb82610ad0565b9050919050565b610b0b81610af0565b8114610b1657600080fd5b50565b600081359050610b2881610b02565b92915050565b6000819050919050565b610b4181610b2e565b8114610b4c57600080fd5b50565b600081359050610b5e81610b38565b92915050565b60008060408385031215610b7b57610b7a610acb565b5b6000610b8985828601610b19565b9250506020610b9a85828601610b4f565b9150509250929050565b60008115159050919050565b610bb981610ba4565b82525050565b6000602082019050610bd46000830184610bb0565b92915050565b610be381610b2e565b82525050565b6000602082019050610bfe6000830184610bda565b92915050565b600080600060608486031215610c1d57610c1c610acb565b5b6000610c2b86828701610b19565b9350506020610c3c86828701610b19565b9250506040610c4d86828701610b4f565b9150509250925092565b600060ff82169050919050565b610c6d81610c57565b82525050565b6000602082019050610c886000830184610c64565b92915050565b600060208284031215610ca457610ca3610acb565b5b6000610cb284828501610b19565b91505092915050565b60008060408385031215610cd257610cd1610acb565b5b6000610ce085828601610b19565b9250506020610cf185828601610b19565b9150509250929050565b7f4e487b7100000000000000000000000000000000000000000000000000000000600052602260045260246000fd5b60006002820490506001821680610d4257607f821691505b602082108103610d5557610d54610cfb565b5b50919050565b610d6481610af0565b82525050565b6000606082019050610d7f6000830186610d5b565b610d8c6020830185610bda565b610d996040830184610bda565b949350505050565b6000602082019050610db66000830184610d5b565b92915050565b7f4e487b7100000000000000000000000000000000000000000000000000000000600052601160045260246000fd5b6000610df682610b2e565b9150610e0183610b2e565b9250828201905080821115610e1957610e18610dbc565b5b9291505056fea2646970667358221220792accc41bb4b5238ea1af7b571f5eeeb23d2bbc74435c9d558b62702cda0a2464736f6c63430008180033",
    "linkReferences": {},
    "deployedLinkReferences": {}
}